:1000000019C033C032C031C030C02FC02EC02DC087
:100010002CC02BC02AC029C08AC027C096C025C0CA
:1000200024C023C022C021C020C020C01EC01DC0CB
:100030001CC01BC011241FBECFEFD4E0DEBFCDBF5C
:1000400011E0A0E0B1E0EEE2F2E002C005900D9216
:10005000AA31B107D9F721E0AAE1B1E001C01D92B0
:10006000AC31B207E1F7A9D0E0C0CACF1F920F921E
:100070000FB60F9211242F933F934F935F936F937B
:100080007F938F939F93AF93CF93DF93EF93FF93E0
:100090003091790080E090E0FC01E050FF4F20813A
:1000A000220F2083019688309105B1F7E8E0F1E056
:1000B00080E090E020812317A0F5FC01EE0FFF1FE8
:1000C000E85FFE4F418150E080E090E067E070E043
:1000D000FC01E050FF4FA0819B01281B390BEA0176
:1000E00002C0D595C7952A95E2F79E0121702A2B6B
:1000F000208301968830910559F73D9A3D98FF91EC
:10010000EF91DF91CF91AF919F918F917F916F91FF
:100110005F914F913F912F910F900FBE0F901F90C5
:100120001895019632968930910521F6E6CF1F92F7
:100130000F920FB60F921124109285001092840036
:100140000F900FBE0F901F9018951F920F920FB631
:100150000F9211242F933F938F939F93EF93FF93CD
:1001600015B880911A0190911B010196877099270B
:1001700090931B0180931A0121E030E001C0220F0F
:100180008A95EAF72095822F8F7088B9207F2BB946
:1001900080911A0190911B01E7E0F1E0E81BF90B57
:1001A000808185B9FF91EF919F918F913F912F9120
:1001B0000F900FBE0F901F9018958FEF84B98FE0AE
:1001C00087B98AEF8AB915B818B81BB880E280934E
:1001D0007E0085E680937C008EEA80937A0085E03D
:1001E00080937B0080917A00806580937A00809173
:1001F0006F00846080936F0080ED97E090938B0098
:1002000080938A00109280008CE08093810089EFB7
:1002100087BD82E084BD83E085BD80916E008260F1
:0E02200080936E007894A895FECFF894FFCFDF
:10022E00AA55AA55AA55AA5510FF0E7F0C3F0A1FB4
:0A023E00080F060704030201010087
:00000001FF
