:1000000019C033C032C031C030C02FC02EC02DC087
:100010002CC02BC02AC029C06EC027C07AC025C002
:1000200024C023C022C021C020C020C01EC01DC0CB
:100030001CC01BC011241FBECFEFD4E0DEBFCDBF5C
:1000400011E0A0E0B1E0E6EFF1E002C005900D9212
:10005000AA31B107D9F721E0AAE1B1E001C01D92B0
:10006000AC31B207E1F78DD0C4C0CACF1F920F9256
:100070000FB60F9211242F933F934F935F938F935B
:100080009F93EF93FF934091790080E090E09C0173
:100090002F5F3F4FF901E050FF4F5081FC01E050CE
:1000A000FF4F50832730310511F0C901F0CFE8E050
:1000B000F1E080E090E02081241748F4FC01EE0F8D
:1000C000FF1FE85FFE4F81818093070105C0019605
:1000D00032968930910579F73D9A3D98FF91EF91DD
:1000E0009F918F915F914F913F912F910F900FBEF4
:1000F0000F901F9018951F920F920FB60F92112418
:1001000010928500109284000F900FBE0F901F90E8
:1001100018951F920F920FB60F9211242F933F93B1
:100120008F939F93EF93FF9315B880911A0190914D
:100130001B0101968770992790931B0180931A01E8
:1001400021E030E001C0220F8A95EAF72095822F46
:100150008F7088B9207F2BB980911A0190911B0173
:10016000E7E0F1E0E81BF90B808185B9FF91EF91A1
:100170009F918F913F912F910F900FBE0F901F90E5
:1001800018958FEF84B98FE087B98AEF8AB915B8CF
:1001900018B81BB880E280937E0085E680937C00CF
:1001A0008EEA80937A0085E080937B0080917A00CC
:1001B000806580937A0080916F00846080936F00E7
:1001C00080ED97E090938B0080938A0010928000DE
:1001D0008CE08093810089EF87BD82E084BD83E05D
:1001E00085BD80916E00826080936E007894A895A2
:0601F000FECFF894FFCFE2
:1001F600AA55AA55AA55AA555AFF507F463F3C1FF5
:0A020600320F28071E0314010A003E
:00000001FF
