:1000000019C020C01FC01EC01DC01CC01BC01AC00C
:1000100019C018C017C016C015C014C013C012C034
:1000200011C010C00FC00EC00DC00CC00BC00AC064
:1000300009C008C011241FBECFEFD4E0DEBFCDBF82
:1000400002D027C0DDCF8AEF8AB98FE087B98FEF62
:1000500084B91BB818B881E085B91092800084E09B
:100060008093810087E090E01092850010928400D8
:10007000B09AB09902C0A895FCCF35B125B1220F36
:10008000232B25B90197009779F710928100A89545
:06009000FECFF894FFCF43
:00000001FF
