:1000000019C033C032C031C030C02FC02EC02DC087
:100010002CC02BC02AC029C028C027C026C025C09C
:1000200024C023C023C021C020C01FC01EC01DC0CB
:100030001CC01BC011241FBECFEFD4E0DEBFCDBF5C
:1000400011E0A0E0B1E0E6E0F3E002C005900D921F
:10005000A836B107D9F721E0A8E6B1E001C01D92AA
:10006000A137B207E1F7A6D04CC1CACF1F920F92B9
:100070000FB60F921124EF92FF920F931F932F93BD
:100080003F934F935F936F937F938F939F93AF9320
:10009000BF93EF93FF93CF93DF9300D0CDB7DEB73D
:1000A00080E090E02091C600FC01E759FE4F2083DC
:1000B0002091C00027FD02C0A895FACF0196853097
:1000C000910581F78091C60080936E0180E0E82E53
:1000D00081E0F82E0FEF1FEF42E050E0B70189E614
:1000E00091E001D1892B11F400E010E043E050E0F1
:1000F000B70189E691E0F7D0892B11F401E010E017
:1001000084E0E80EF11C88E6E81681E0F80621F7A5
:100110000F3F8FEF1807A9F1F801E459FE4F8081D6
:100120008983F801E359FE4F90819A83823319F451
:1001300082E090E009C0843319F484E090E004C0C8
:10014000883331F488E090E09093700180936F01E0
:1001500042E050E064E671E0CE010196C4D0892B04
:1001600031F480E190E09093700180936F01809171
:100170006801811106C081E08093680189E691E001
:1001800085B90F900F90DF91CF91FF91EF91BF91C3
:10019000AF919F918F917F916F915F914F913F911F
:1001A0002F911F910F91FF90EF900F900FBE0F9026
:1001B0001F90189588EF8AB98FE087B99FEF94B99F
:1001C0008BB918B815B886E08093C20087E690E036
:1001D0009093C5008093C40080E98093C10082E1C0
:1001E0008093B00078942FE088E190E00FB6F89407
:1001F000A895809360000FBE2093600090E1E92EE7
:10020000F12CA895809168018823D9F3C3E0D1E04F
:100210008E010350110942E050E0B80189E691E0F7
:1002200062D0892B19F488818093B30043E050E0B9
:10023000B80189E691E057D0892B19F48881809321
:10024000B300249641E0CB36D40711F71092B200E8
:100250008091B10084608093B10020E030E0609133
:100260006F0170917001C70117D02617370764F42A
:100270008FE79AE146E0815090404040E1F700C0AE
:1002800000002F5F3F4FEBCF8091B100887F8093BC
:10029000B10010926801B5CF97FB072E16F40094B9
:1002A00006D077FD08D00BD007FC05D03EF4909522
:1002B00081959F4F0895709561957F4F0895AA1B72
:1002C000BB1B51E107C0AA1FBB1FA617B70710F041
:1002D000A61BB70B881F991F5A95A9F78095909573
:1002E000BC01CD010895FB01DC014150504030F0CC
:1002F0008D910190801919F40020B9F7881B990B92
:060300000895F894FFCF00
:10030600433400EE432334E1443400D4442334C858
:10031600453400BD463400B2462334A84734009F16
:10032600472334964134008E412334864234007E7E
:1003360043350077432335714435006A44233564D9
:100346004535005F4635005946233554473500503C
:100356004723354B41350047412335434235003F5E
:08036600454E44003136000051
:00000001FF
