:1000000019C033C032C031C056C02FC02EC02DC061
:100010002CC02BC02AC0B2C028C027C021C525C013
:1000200024C023C022C021C020C01FC01EC01DC0CC
:100030001CC01BC011241FBECFEFD4E0DEBFCDBF5C
:1000400011E0A0E0B1E0E0E6FDE002C005900D9215
:10005000A438B107D9F722E0A4E8B1E001C01D92AD
:10006000A832B207E1F765D579C6CACF1092B000C1
:1000700084E48093B10008958093B30070E070939E
:1000800085016093840182E18093B000089580919E
:10009000840190918501892B69F080918401909170
:1000A000850101979093850180938401892B11F438
:1000B0001092B00008951F920F920FB60F92112464
:1000C0008F9380918601811103C081E08093860126
:1000D000D99A8F910F900FBE0F901F901895E8E658
:1000E000F0E080818260808380E380936C00809365
:1000F0009301809394011092950108958091860157
:10010000882339F180919101909192018037974134
:1001100030F48091910190919201019602C080E0AB
:1001200090E0909392018093910180919101909140
:100130009201892B71F486B190E08095909524E02E
:10014000959587952A95E1F7837080939301109296
:10015000860108959091930180919501981739F047
:10016000809193018093950181E090E0089580E073
:1001700090E008958091950190E008951F920F926C
:100180000FB60F921124BF92CF92DF92EF92FF929F
:100190000F931F932F933F934F935F936F937F938F
:1001A0008F939F93AF93BF93CF93DF93EF93FF937F
:1001B00015B880918B018F5F877080938B012091A0
:1001C0008B0181E090E0022E01C0880F0A94EAF7CB
:1001D0008095E0918B01F0E0EA56FE4F1082982F57
:1001E0009F70906398B9807F8BB980911E02909127
:1001F0001F02059734F480911E0290911F02019610
:1002000002C081E090E090931F0280931E02C7E03D
:10021000D0E08091220290912302C81BD90BE0907C
:100220002002F090210240912402B090250220E0AB
:1002300030E007E010E0CC24C394D12C80918F01F2
:1002400090919001892B49F480918B0190E08C175B
:100250009D0719F4E216F30699F080918B01F801DD
:10026000E81BF10983E0EE0FFF1F8A95E1F7E20F2B
:10027000F31FEE0FFF1FE256FE4F6081718102C037
:10028000642F7B2D80911E0290911F0267D4892BD1
:1002900089F4E0918B01F0E0EA56FE4F5081C801ED
:1002A000821B930BB60102C0660F771F8A95E2F797
:1002B000562B50832F5F3F4F2830310509F0BECFBA
:1002C000E0918B01F0E0EA56FE4F808185B9FF9105
:1002D000EF91DF91CF91BF91AF919F918F917F91DE
:1002E0006F915F914F913F912F911F910F91FF90CF
:1002F000EF90DF90CF90BF900F900FBE0F901F90A8
:1003000018958FEF84B98FE087B98AEF8AB980E3B7
:1003100088B91BB815B8109280008AE080938100DC
:1003200084EF91E09093890080938800EFE6F0E0FD
:10033000808182608083089510921F0210921E02B5
:1003400080E090E066E070E020E030E0AC01E3E0C7
:10035000440F551FEA95E1F7FA01E20FF31FEE0F84
:10036000FF1FE256FE4F718360832F5F3F4F28309F
:10037000310591F7FC01EA56FE4F10820196883054
:10038000910511F781E090E09093D5018093D4011D
:100390009093E7018093E60125E030E03093D701A8
:1003A0002093D6013093E5012093E40122E030E070
:1003B000309321022093200224E030E03093230286
:1003C0002093220290932702809326029093250285
:1003D000809324021092900110928F01089589EF6A
:1003E00087BD82E084BD83E085BDEEE6F0E08081DC
:1003F00082608083089580E090E030D424D41FD4BC
:10040000BC0180E090E02FC408950895EF92FF9220
:100410000F931F93CF93DF938130910519F4C5E0BB
:10042000D0E002C0C1E0D0E0620F731F400F511F47
:10043000A1E0B0E07B01FB01EE0FFF1FEE0FFF1FFD
:10044000EE0FFF1FE40FF51FEE0FFF1FE256FE4FEA
:100450000190F081E02DEC17FD0719F4683071056B
:10046000A0F0F70123E0EE0FFF1F2A95E1F7E40F5C
:10047000F51FEE0FFF1FE256FE4F20813181281736
:10048000390761F080E090E00BC0620F731F4830C5
:10049000510538F71196400F511FCCCFCD01019770
:1004A000DF91CF911F910F91FF90EF900895CF9220
:1004B000DF92EF92FF920F931F93CF93DF937C0114
:1004C000EB016A01FB0143E0EE0FFF1F4A95E1F7E4
:1004D000E80FF91FEE0FFF1FE256FE4F808191815A
:1004E000069709F057C000E010E02FEF3FEFA7019B
:1004F000C6018CDF892BF1F400E010E021E030E050
:10050000A701BE01C60182DF892BA1F40FEF1FEF07
:1005100020E030E0A701BE01C60178DF892B51F44D
:1005200001E010E020E030E0A701BE01C6016EDF6F
:10053000892B11F081E02FC00FEF1FEF2FEF3FEF5E
:10054000A701BE01C60162DF892BA1F701E010E01F
:100550002FEF3FEFA701BE01C60158DF892B51F7EE
:100560000FEF1FEF21E030E0A701BE01C6014EDF13
:10057000892B01F701E010E021E030E0A701BE0186
:10058000C60144DF31E020E0892B09F430E0832FFD
:10059000922F02C080E090E0DF91CF911F910F91E8
:1005A000FF90EF90DF90CF9008956F927F928F929F
:1005B0009F92AF92BF92CF92DF92EF92FF920F93F2
:1005C0001F93CF93DF936C015B013A0170DF892B9E
:1005D00009F45DC0CFEFDFEFEE24EA94FE2C4E016C
:1005E0008A0C9B1C209759F4E114F10441F48FEF1D
:1005F000E81AF80A82E0E816F104A1F724C087019E
:100600009E01A601B501C30101DFA401B7016C0D74
:100610007D1D21E030E0821793074CF3FA01A3E03F
:10062000EE0FFF1FAA95E1F7E60FF71FEE0FFF1F72
:10063000E256FE4F718260822F5F3F4F6E0D7F1D2D
:100640004C0F5D1FE8CF2196C230D10529F6F50188
:1006500063E0EE0FFF1F6A95E1F7EC0DFD1DEE0F55
:10066000FF1FE256FE4F7182608263E086E704DD81
:100670008091260290912702019719F485E090E07D
:1006800002C081E090E09093270280932602DF91E0
:10069000CF911F910F91FF90EF90DF90CF90BF907F
:1006A000AF909F908F907F906F900895EF92FF9200
:1006B0000F931F93CF93DF937C0100E010E0C0E025
:1006C000D0E0A701B801CE01F2DE019771F12196C9
:1006D000C830D105B1F70F5F1F4F0830110579F70A
:1006E00080E090E020E030E040E050E0BC01C3E07A
:1006F000660F771FCA95E1F7FB01E40FF51FEE0FB8
:10070000FF1FE256FE4F0190F081E02D319711F46A
:100710002F5F3F4F4F5F5F4F4830510569F701969C
:100720008830910509F7C90102C080E090E0DF91AF
:10073000CF911F910F91FF90EF900895CF93DF938A
:1007400009DD892B09F44CC015DD82309105B1F02B
:100750008330910519F1019709F042C08091200280
:10076000909121021816190614F4019702C087E02F
:1007700090E0909321028093200232C08091220267
:10078000909123028730910514F4019602C080E015
:1007900090E0909323028093220222C0C09126020F
:1007A000D0912702C130D105D9F460912202709115
:1007B000230241E050E08091200290912102F5DE79
:1007C000809126029091270271DF1816190624F4F1
:1007D000D0939001C0938F0110928E0110928D01E1
:1007E000DF91CF910895E3E0220F331FEA95E1F7FF
:1007F000240F351F220F331F22563E4FF90140812F
:100800005181A3E0660F771FAA95E1F7680F791F62
:10081000660F771F62567E4FFB0180819181F9013F
:1008200091838083FB01518340830895EF92FF926F
:100830000F931F93CF93DF9340E050E020E030E030
:1008400080E090E060E070E0EA01E3E0CC0FDD1FC3
:10085000EA95E1F7DE01A60FB71FAA0FBB1FA2564C
:10086000BE4FED91FC9111973197F1F4F90113E02E
:10087000EE0FFF1F1A95E1F7E80FF91FEE0FFF1FAC
:10088000E256FE4F00811181ED90FC901197F182AC
:10089000E08211961C930E9301968830910521F405
:1008A0002F5F3F4F80E090E06F5F7F4F68307105B2
:1008B00089F64F5F5F4F4830510521F640E050E028
:1008C00060E070E0EA0113E0CC0FDD1F1A95E1F75C
:1008D000DE01A60FB71FAA0FBB1FA256BE4FED9198
:1008E000FC9111973597F1F4F90103E0EE0FFF1F2A
:1008F0000A95E1F7E80FF91FEE0FFF1FE256FE4FD2
:1009000000811181ED90FC901197F182E0821196A7
:100910001C930E9301968830910521F42F5F3F4F71
:1009200080E090E06F5F7F4F6830710589F64F5F20
:100930005F4F4830510521F6DF91CF911F910F9104
:10094000FF90EF90089572DF82E090E09093900125
:1009500080938F0108958F929F92AF92BF92CF9212
:10096000DF92EF92FF920F931F93CF93DF93CDB758
:10097000DEB7C058D1090FB6F894DEBF0FBECDBFA9
:100980005C01812C912CC12CD12C00E010E0E12CD9
:10099000F12CA501B601C7018ADD019781F4F801A8
:1009A000EE0FFF1F81E090E08C0F9D1FE80FF91FF5
:1009B000C701880D991D918380830F5F1F4F9FEFA3
:1009C000E91AF90AE8E0EE16F10419F7FFEFCF1A79
:1009D000DF0A88E0880E911C98E0C916D104B9F6A8
:1009E0000115110549F12BD1B801B8D0880F991F15
:1009F0008C0F9D1FFC0181819281BC0197FF02C079
:100A0000695F7F4F9B01F3E035952795FA95E1F7F4
:100A100068E070E0A3D0A501B901C7DD809126028E
:100A20009091270243DE1816190634F481E090E015
:100A30009093900180938F01C058DF4F0FB6F894C8
:100A4000DEBF0FBECDBFDF91CF911F910F91FF9001
:100A5000EF90DF90CF90BF90AF909F908F900895D0
:100A60001F920F920FB60F9211242F933F934F9323
:100A70005F936F937F938F939F93AF93BF93EF9306
:100A8000FF9380918A018F5F80938A01823318F0EF
:100A900010928A01FCDA80918D0190918E0101966D
:100AA00090938E0180938D01843F91406CF0109261
:100AB0008E0110928D018091260290912702059758
:100AC00019F485E090E047DF8091880190918901D9
:100AD000019690938901809388018A3F9105C4F023
:100AE000109289011092880180912602909127022C
:100AF00020912402309125022817390719F426E0A5
:100B000080E002C0282F892F2093240280932502A1
:100B1000FF91EF91BF91AF919F918F917F916F91D5
:100B20005F914F913F912F910F900FBE0F901F90AB
:100B3000189502DCE6DB53DCD2DA98DA5CDC7894D8
:100B4000A895DCDA80918F0190919001009721F0B7
:100B50000197B1F7F8DEF4CFF1DDF2CF97FB072E66
:100B600016F4009406D077FD08D00BD007FC05D012
:100B70003EF4909581959F4F0895709561957F4FB4
:100B80000895AA1BBB1B51E107C0AA1FBB1FA617D4
:100B9000B70710F0A61BB70B881F991F5A95A9F726
:100BA00080959095BC01CD0108958F929F92AF9250
:100BB000BF92CF92DF92EF92FF92CF93DF93EC013F
:100BC000688179818A819B81611571058105910513
:100BD00021F464E279ED8BE597E02DE133EF41E01C
:100BE00050E062D049015A019B01AC01A7EAB1E48F
:100BF00077D06B017C01ACEEB4EFA50194017CD001
:100C0000C60ED71EE81EF91EF7FE06C081E0C81A00
:100C1000D108E10880E8F80AC882D982EA82FB821A
:100C2000C6019F77DF91CF91FF90EF90DF90CF903B
:100C3000BF90AF909F908F900895B7DF089580E8A0
:100C400091E0B3DF0895A0E0B0E08093800190933D
:100C50008101A0938201B09383010895A8E1B0E0DF
:100C600042E050E005C012D0272F11C0DC01CB01BB
:100C7000FC01F999FECF06C0F2BDE1BDF89A3196AC
:100C800000B40D9241505040B8F70895262FF999BD
:100C9000FECF1FBA92BD81BD20BD0FB6F894FA9A5F
:100CA000F99A0FBE01960895052E97FB16F400944D
:100CB0000FD057FD05D024D007FC02D046F408C061
:100CC00050954095309521953F4F4F4F5F4F089578
:100CD00090958095709561957F4F8F4F9F4F0895A8
:100CE00031D0A59F900DB49F900DA49F800D911DB4
:100CF00011240895B7FFF4CFF3DF821B930B0895FF
:100D0000A1E21A2EAA1BBB1BFD010DC0AA1FBB1F0F
:100D1000EE1FFF1FA217B307E407F50720F0A21B81
:100D2000B30BE40BF50B661F771F881F991F1A94EE
:100D300069F760957095809590959B01AC01BD0118
:100D4000CF010895A29FB001B39FC001A39F01D01E
:100D5000B29F700D811D1124911D0895F894FFCF4D
:100D60001E00F4FF0000FFFFFFFF0000F4FF1E0065
:100D7000F4FFF1FFFDFFFDFFFDFFFDFFF1FFF4FFBD
:100D80000000FDFF0000FFFFFFFF0000FDFF00006F
:100D9000FFFFFDFFFFFFFFFFFFFFFFFFFDFFFFFF67
:100DA000FFFFFDFFFFFFFFFFFFFFFFFFFDFFFFFF57
:100DB0000000FDFF0000FFFFFFFF0000FDFF00003F
:100DC000F4FFF1FFFDFFFDFFFDFFFDFFF1FFF4FF6D
:100DD0001E00F4FF0000FFFFFFFF0000F4FF1E00F5
:040DE000010000000E
:00000001FF
