:1000000019C028C027C026C025C024C023C023C0D3
:1000100021C020C01FC01EC01DC01CC01BC01AC0F4
:1000200019C018C017C016C015C014C013C012C024
:1000300011C010C011241FBECFEFD4E0DEBFCDBF72
:1000400022E0A0E0B1E001C01D92AB30B207E1F7C1
:1000500027D047C0D5CF1F920F920FB60F92112411
:100060002F938F939F9380910102909102020196AA
:10007000843F21E0920729F09093020280930102CD
:1000800007C0109202021092010285B1809585B9D5
:100090009F918F912F910F900FBE0F901F901895E9
:1000A00010920202109201028FEF84B99FE097B97B
:1000B0009AEF9AB990E398B91BB885B982E080931A
:1000C000B00084E08093B10089EF8093B300809109
:1000D0007000826080937000789410920002A8955E
:0600E000FECFF894FFCFF3
:00000001FF
