:1000000019C033C032C031C019C42FC02EC02DC09A
:100010002CC02BC02AC0BEC228C027C02DC625C0F8
:1000200024C023C022C021C020C01FC01EC01DC0CC
:100030001CC01BC011241FBECFEFD4E0DEBFCDBF5C
:1000400011E0A0E0B1E0EEEEFFE002C005900D92FD
:10005000AE39B107D9F722E0AEE9B1E001C01D9297
:10006000A734B207E1F76CD6C0C7CACFEF92FF92B0
:100070000F931F93CF93DF9378018130910519F48B
:1000800005E010E002C001E010E0620F731F4E0DAA
:100090005F1DC1E0D0E0FB01DB01AA0FBB1FAA0F6F
:1000A000BB1FAA0FBB1FA40FB51FAA0FBB1FA854CD
:1000B000BE4F0D90BC91A02DA017B10719F4683068
:1000C000710520F0E830F10550F01FC0620F731F7A
:1000D00048305105B8F721964E0D5F1DDCCF4830F2
:1000E000510598F423E0EE0FFF1F2A95E1F7E40F86
:1000F000F51FEE0FFF1FE854FE4F208131812817B6
:10010000390719F4CE01019702C080E090E0DF9139
:10011000CF911F910F91FF90EF900895CF92DF92B2
:10012000EF92FF920F931F93CF93DF937C01EB012C
:100130006A01FB0183E0EE0FFF1F8A95E1F7EE0DE8
:10014000FF1DEE0FFF1FE854FE4F8081918106973F
:1001500009F057C000E010E02FEF3FEFA701C60104
:1001600085DF892BF1F400E010E021E030E0A70109
:10017000BE01C6017BDF892BA1F40FEF1FEF20E04A
:1001800030E0A701BE01C60171DF892B51F401E007
:1001900010E020E030E0A701BE01C60167DF892B37
:1001A00011F081E02FC00FEF1FEF2FEF3FEFA701FE
:1001B000BE01C6015BDF892BA1F701E010E02FEF44
:1001C0003FEFA701BE01C60151DF892B51F70FEFA9
:1001D0001FEF21E030E0A701BE01C60147DF892BF8
:1001E00001F701E010E021E030E0A701BE01C60107
:1001F0003DDF31E020E0892B09F430E0832F922F9E
:1002000002C080E090E0DF91CF911F910F91FF90AD
:10021000EF90DF90CF9008956F927F928F929F9290
:10022000AF92BF92CF92DF92EF92FF920F931F9304
:10023000CF93DF936C015B013A0170DF892B09F4E6
:100240005DC0CFEFDFEFEE24EA94FE2C4E018A0C66
:100250009B1C209759F4E114F10441F48FEFE81A44
:10026000F80A82E0E816F104A1F724C087019E0194
:10027000A601B501C301FADEA401B7016C0D7D1D15
:1002800021E030E0821793074CF3FA01A3E0EE0F70
:10029000FF1FAA95E1F7E60FF71FEE0FFF1FE854C7
:1002A000FE4F718260822F5F3F4F6E0D7F1D4C0F9E
:1002B0005D1FE8CF2196C230D10529F6F50123E074
:1002C000EE0FFF1F2A95E1F7EC0DFD1DEE0FFF1F4E
:1002D000E854FE4F7182608263E086E790D2DF913E
:1002E000CF911F910F91FF90EF90DF90CF90BF9033
:1002F000AF909F908F907F906F904DC2DF91CF9184
:100300001F910F91FF90EF90DF90CF90BF90AF9033
:100310009F908F907F906F900895EF92FF920F9330
:100320001F93CF93DF937C0100E010E0C0E0D0E0AA
:10033000A701B801CE01F2DE019771F12196C83014
:10034000D105B1F70F5F1F4F0830110579F780E035
:1003500090E020E030E040E050E0BC01C3E0660FF8
:10036000771FCA95E1F7FB01E40FF51FEE0FFF1FA2
:10037000E854FE4F0190F081E02D319711F42F5F8A
:100380003F4F4F5F5F4F4830510569F70196883006
:10039000910509F7C90102C080E090E0DF91CF919B
:1003A0001F910F91FF90EF900895E3E0220F331F0C
:1003B000EA95E1F7240F351F220F331F28543E4FD3
:1003C000F90140815181A3E0660F771FAA95E1F7FB
:1003D000680F791F660F771F68547E4FFB0180817D
:1003E0009181F90191838083FB01518340830895BA
:1003F000EF92FF920F931F93CF93DF9340E050E073
:1004000020E030E080E090E060E070E0EA01E3E0CE
:10041000CC0FDD1FEA95E1F7DE01A60FB71FAA0F8B
:10042000BB1FA854BE4FED91FC9111973197F1F489
:10043000F90113E0EE0FFF1F1A95E1F7E80FF91F1E
:10044000EE0FFF1FE854FE4F00811181ED90FC90EC
:100450001197F182E08211961C930E9301968830D9
:10046000910521F42F5F3F4F80E090E06F5F7F4F59
:100470006830710589F64F5F5F4F4830510521F6AE
:1004800040E050E060E070E0EA0113E0CC0FDD1FD7
:100490001A95E1F7DE01A60FB71FAA0FBB1FA854DC
:1004A000BE4FED91FC9111973597F1F4F90103E0FE
:1004B000EE0FFF1F0A95E1F7E80FF91FEE0FFF1F80
:1004C000E854FE4F00811181ED90FC901197F1826C
:1004D000E08211961C930E9301968830910521F4C9
:1004E0002F5F3F4F80E090E06F5F7F4F6830710576
:1004F00089F64F5F5F4F4830510521F6DF91CF916C
:100500001F910F91FF90EF90089581E090E09093FC
:100510009F0180939E01089510929F0110929E0169
:10052000089580E090E066E070E020E030E0AC010B
:10053000E3E0440F551FEA95E1F7FA01E20FF31FDC
:10054000EE0FFF1FE854FE4F718360832F5F3F4F14
:100550002830310591F7FC01E85CFD4F10820196CF
:100560008830910511F708951092410210924002CF
:10057000D8DF109280008AE08093810084EF91E0C0
:100580009093890080938800EFE6F0E0808182609C
:10059000808308951F920F920FB60F921124DF925D
:1005A000EF92FF920F931F932F933F934F935F937D
:1005B0006F937F938F939F93AF93BF93CF93DF936B
:1005C000EF93FF9315B88091A0018F5F87708093A0
:1005D000A0012091A00181E090E0022E01C0880FCF
:1005E0000A94EAF78095E091A001F0E0E85CFD4F05
:1005F0001082982F9F70906398B9807F8BB98091FB
:10060000400290914102059734F48091400290910C
:100610004102019602C081E090E0909341028093F4
:100620004002C0E0D0E007E010E0EE24E394F12CBB
:1006300080919E0190919F01019791F4D090A0012B
:100640007BD02D2D30E0A801481B590B241735070E
:1006500039F46DD08C179D0719F473D0BC0112C00A
:100660008091A001F801E81BF109B3E0EE0FFF1F34
:10067000BA95E1F7EC0FFD1FEE0FFF1FE854FE4F98
:10068000608171818091400290914102AED3892BAB
:1006900089F4E091A001F0E0E85CFD4F2081C80101
:1006A0008C1B9D0BA70102C0440F551F8A95E2F7D2
:1006B000242B20832196C830D10509F0B9CFE091D1
:1006C000A001F0E0E85CFD4F808185B9FF91EF91DA
:1006D000DF91CF91BF91AF919F918F917F916F915A
:1006E0005F914F913F912F911F910F91FF90EF904C
:1006F000DF900F900FBE0F901F9018959093A6015A
:100700008093A5017093A8016093A7015093A40161
:100710004093A3013093A2012093A1015093AC0117
:100720004093AB015093AA014093A9010895809191
:10073000A5019091A60108958091A7019091A8012B
:1007400008958091A9019091AA0108958091A50131
:100750009091A6011816190614F4019702C087E0BB
:1007600090E09093A6018093A50108958091A70140
:100770009091A8018730910514F4019602C080E0A1
:1007800090E09093A8018093A70108958091AB0118
:100790009091AC0108958091A3019091A4012091C2
:1007A000AB013091AC012817390729F48091A101E0
:1007B0009091A20104C08091A3019091A401909313
:1007C000AC018093AB0108958091AB019091AC0195
:1007D0002091A9013091AA012817390719F426E0C0
:1007E00080E002C0282F892F2093A9018093AA01BD
:1007F00008951092B00084E48093B100089580932E
:10080000B30070E07093AE016093AD0182E180931C
:10081000B00008958091AD019091AE01892B69F0EF
:100820008091AD019091AE0101979093AE018093BC
:10083000AD01892B11F41092B00008951F920F9210
:100840000FB60F9211248F938091AF01811103C0D5
:1008500081E08093AF01D99A8F910F900FBE0F90D6
:100860001F901895E8E6F0E080818260808380E345
:1008700080936C008093440280934502109246025C
:1008800008958091AF01882339F1809142029091BF
:100890004302803A9F4030F480914202909143029B
:1008A000019602C080E090E0909343028093420260
:1008B0008091420290914302892B71F486B190E0BD
:1008C0008095909524E0959587952A95E1F783701A
:1008D000809344021092AF01089590914402809158
:1008E0004602981739F0809144028093460281E0D5
:1008F00090E0089580E090E008958091460290E0B5
:10090000089580E090E0F1D2E5D2E0D2BC0180E031
:1009100090E0F0C2DBC289EF87BD82E084BD83E056
:1009200085BDEEE6F0E080818260808308950F93BC
:100930001F93CF93DF93D1DF892B99F1DEDF8230D4
:10094000910551F08330910561F0019751F5DF91E8
:10095000CF911F910F91FACEDF91CF911F910F91FF
:1009600005CF14DF019731F08091800190918101D2
:10097000892BB9F40BDF8C01DFDEEC01D8DEA80196
:10098000BE014ADC03DFC9DC1816190634F483E023
:1009900090E09093B7018093B6011092B501109248
:1009A000B401DF91CF911F910F9108958091800143
:1009B00090918101029734F480918001909181019E
:1009C000019602C080E090E09093810180938001C5
:1009D000A8DD80E090E0A7E0B0E020E030E0BC01DE
:1009E00043E0660F771F4A95E1F7E0918001F091AF
:1009F000810143E0EE0FFF1F4A95E1F7E80FF91F71
:100A0000EE57FE4F408150E0FD01E21BF30B02C0A8
:100A100055954795EA95E2F740FF03C041E050E065
:100A200002C046E050E0FB01E20FF31FEE0FFF1F94
:100A3000E854FE4F518340832F5F3F4F28303105EC
:100A4000A1F601968830910541F6089546DF892B7D
:100A500071F053DF8130910519F0029711F008957C
:100A6000A5CF81E090E09093B7018093B6010895FF
:100A70008F929F92AF92BF92CF92DF92EF92FF92AE
:100A80000F931F93CF93DF93CDB7DEB7C058D10933
:100A90000FB6F894DEBF0FBECDBF5C01812C912C48
:100AA000C12CD12C00E010E0E12CF12CA501B60105
:100AB000C70134DB019781F4F801EE0FFF1F81E0DD
:100AC00090E08C0F9D1FE80FF91FC701880D991D3D
:100AD000918380830F5F1F4F9FEFE91AF90AE8E0C7
:100AE000EE16F10419F7FFEFCF1ADF0A88E0880E3F
:100AF000911C98E0C916D104B9F60115110531F120
:100B000009DFB80172D1880F991F8C0F9D1FFC015E
:100B100081819281BC0197FF02C0695F7F4F9B0179
:100B200053E0359527955A95E1F768E070E05DD17F
:100B3000A501B90171DB2ADEF0DB1816190634F4C1
:100B400083E090E09093B7018093B601C058DF4FE7
:100B50000FB6F894DEBF0FBECDBFDF91CF911F91CE
:100B60000F91FF90EF90DF90CF90BF90AF909F904C
:100B70008F9008958F929F92AF92BF92CF92DF9203
:100B8000EF92FF920F931F93CF93DF93CDB7DEB712
:100B9000C058D1090FB6F894DEBF0FBECDBF5C01BF
:100BA000812C912CC12CD12C00E010E0E12CF12CF7
:100BB000A501B601C701B2DA019781F4F801EE0F81
:100BC000FF1F81E090E08C0F9D1FE80FF91FC70108
:100BD000880D991D918380830F5F1F4F9FEFE91A46
:100BE000F90AE8E0EE16F10419F7FFEFCF1ADF0A71
:100BF00088E0880E911C98E0C916D104B9F6011559
:100C0000110531F187DEB801F0D0880F991F8C0FE4
:100C10009D1FFC0181819281BC0197FF02C0695F29
:100C20007F4F9B01E3E035952795EA95E1F768E072
:100C300070E0DBD0A501B901EFDAA8DD6EDB181694
:100C4000190634F483E090E09093B7018093B601E5
:100C5000C058DF4F0FB6F894DEBF0FBECDBFDF9197
:100C6000CF911F910F91FF90EF90DF90CF90BF90A9
:100C7000AF909F908F9008951F920F920FB60F9292
:100C800011242F933F934F935F936F937F938F9391
:100C90009F93AF93BF93EF93FF938091B3018F5FC7
:100CA0008093B301823318F01092B301B3DD8091C9
:100CB000800190918101892B09F168DD0597F1F49C
:100CC0008091B4019091B50101969093B501809304
:100CD000B401843F914094F01092B5011092B40198
:100CE00080918001909181018130910529F00297D6
:100CF00029F44CDDBDDE02C049DD3CDF8091B1014D
:100D00009091B20101969093B2018093B1018A3F14
:100D100091052CF01092B2011092B10155DDFF91B6
:100D2000EF91BF91AF919F918F917F916F915F9163
:100D30004F913F912F910F900FBE0F901F901895DC
:100D40008FEF84B98FE087B98AEF8AB980E388B9D9
:100D50001BB815B809DCDFDD85DD4BDDD2DD109277
:100D6000B7011092B601D8DB21DE789405E010E0DF
:100D7000A89587DDC091B601D091B701C130D105EA
:100D800079F024F4CD2BA1F761DEF2CFC230D1058A
:100D900029F1239769F7C0DB2BDB84E090E020C0CA
:100DA000C0DBD093EF01C093EE01D0930102C0935A
:100DB00000021093F1010093F0011093FF010093E2
:100DC000FE0125E030E041E050E064E070E082E0C8
:100DD00090E094DC9ADB82E090E002C0A8DDC8CF0E
:100DE0009093B7018093B601C3CF97FB072E16F4FB
:100DF000009406D077FD08D00BD007FC05D03EF458
:100E0000909581959F4F0895709561957F4F0895B6
:100E1000AA1BBB1B51E107C0AA1FBB1FA617B70720
:100E200010F0A61BB70B881F991F5A95A9F780953C
:100E30009095BC01CD0108958F929F92AF92BF9281
:100E4000CF92DF92EF92FF92CF93DF93EC01688114
:100E500079818A819B81611571058105910521F454
:100E600064E279ED8BE597E02DE133EF41E050E06E
:100E700062D049015A019B01AC01A7EAB1E477D0E5
:100E80006B017C01ACEEB4EFA50194017CD0C60EE1
:100E9000D71EE81EF91EF7FE06C081E0C81AD10869
:100EA000E10880E8F80AC882D982EA82FB82C6019A
:100EB0009F77DF91CF91FF90EF90DF90CF90BF9021
:100EC000AF909F908F900895B7DF08958AE991E0E1
:100ED000B3DF0895A0E0B0E080939A0190939B0166
:100EE000A0939C01B0939D010895A8E1B0E042E079
:100EF00050E005C012D0272F11C0DC01CB01FC014E
:100F0000F999FECF06C0F2BDE1BDF89A319600B462
:100F10000D9241505040B8F70895262FF999FECF11
:100F20001FBA92BD81BD20BD0FB6F894FA9AF99A06
:100F30000FBE01960895052E97FB16F400940FD06E
:100F400057FD05D024D007FC02D046F408C05095C8
:100F50004095309521953F4F4F4F5F4F08959095A5
:100F60008095709561957F4F8F4F9F4F089531D039
:100F7000A59F900DB49F900DA49F800D911D1124ED
:100F80000895B7FFF4CFF3DF821B930B0895A1E21E
:100F90001A2EAA1BBB1BFD010DC0AA1FBB1FEE1FF3
:100FA000FF1FA217B307E407F50720F0A21BB30B3E
:100FB000E40BF50B661F771F881F991F1A9469F7BA
:100FC00060957095809590959B01AC01BD01CF0116
:100FD0000895A29FB001B39FC001A39F01D0B29F0B
:0E0FE000700D811D1124911D0895F894FFCF0E
:100FEE001E00F4FF0000FFFFFFFF0000F4FF1E00D5
:100FFE00F4FFF1FFFDFFFDFFFDFFFDFFF1FFF4FF2D
:10100E000000FDFF0000FFFFFFFF0000FDFF0000DE
:10101E00FFFFFDFFFFFFFFFFFFFFFFFFFDFFFFFFD6
:10102E00FFFFFDFFFFFFFFFFFFFFFFFFFDFFFFFFC6
:10103E000000FDFF0000FFFFFFFF0000FDFF0000AE
:10104E00F4FFF1FFFDFFFDFFFDFFFDFFF1FFF4FFDC
:10105E001E00F4FF0000FFFFFFFF0000F4FF1E0064
:10106E000200C0A0C0A8160506044EA4E4AE008679
:0E107E00AAD74EA4E4AE0285AAD70100000056
:00000001FF
