:1000000019C033C032C031C0EDC02FC02EC02DC0CA
:100010002CC02BC02AC02AC028C027C078C425C045
:1000200024C023C022C021C020C01FC01EC01DC0CC
:100030001CC01BC011241FBECFEFD4E0DEBFCDBF5C
:1000400021E0A4E0B1E001C01D92A73AB207E1F7B8
:1000500011E0A0E0B1E0E2E3FDE002C005900D9206
:10006000A430B107D9F7CBD462C6CACF1F920F9282
:100070000FB60F921124BF92CF92DF92EF92FF92B0
:100080000F931F932F933F934F935F936F937F93A0
:100090008F939F93AF93BF93CF93DF93EF93FF9390
:1000A00015B880910A018F5F877080930A012091B3
:1000B0000A0181E090E0022E01C0880F0A94EAF75D
:1000C0008095E0910A01F0E0E05FFE4F1082982FEA
:1000D0009F70906398B9807F8BB980919D019091BA
:1000E0009E01059734F480919D0190919E010196A7
:1000F00002C081E090E090939E0180939D01C7E053
:10010000D0E08091A1019091A201C81BD90BE09091
:100110009F01F090A0014091A301B090A40120E0C4
:1001200030E007E010E0CC24C394D12C80910A0188
:1001300090E08C179D0719F4E216F30699F0809170
:100140000A01F801E81BF10983E0EE0FFF1F8A9511
:10015000E1F7E20FF31FEE0FFF1FE75EFE4F608136
:10016000718102C0642F7B2D80919D0190919E0131
:10017000DED4892B89F4E0910A01F0E0E05FFE4FC4
:100180005081C801821B930BB60102C0660F771F16
:100190008A95E2F7562B50832F5F3F4F2830310569
:1001A00029F6E0910A01F0E0E05FFE4F808185B919
:1001B000FF91EF91DF91CF91BF91AF919F918F917F
:1001C0007F916F915F914F913F912F911F910F916F
:1001D000FF90EF90DF90CF90BF900F900FBE0F90E9
:1001E0001F9018951F920F920FB60F9211248F93A4
:1001F00080910401811103C081E080930401D99AA8
:100200008F910F900FBE0F901F9018958FEF84B9AC
:100210009FE097B99AEF9AB990E398B91BB885B95E
:10022000109280008AE08093810084EF91E09093A7
:10023000890080938800EFE6F0E08081826080830F
:100240000895E8E6F0E080818260808380E3809317
:100250006C00809318018093990110929A0108957F
:1002600010929E0110929D0180E090E066E070E0A7
:1002700020E030E0AC01E3E0440F551FEA95E1F7E0
:10028000FA01E20FF31FEE0FFF1FE75EFE4F7183CF
:1002900060832F5F3F4F2830310591F7FC01E05F0D
:1002A000FE4F108201968830910511F781E090E0B1
:1002B0009093500180934F0190936201809361016C
:1002C00025E030E0309352012093510130936001DA
:1002D00020935F0122E030E03093A00120939F0142
:1002E00024E030E03093A2012093A1019093A60175
:1002F0008093A5019093A4018093A30110920D0116
:1003000010920C01089589EF87BD82E084BD83E0DF
:1003100085BDEEE6F0E0808182608083089580E014
:1003200090E085D479D474D4BC0180E090E084C49A
:100330001092B00084E48093B10008958093B300DC
:100340006093050182E18093B0000895EF92FF92DF
:100350000F931F93CF93DF938130910519F4C5E07C
:10036000D0E002C0C1E0D0E0620F731F400F511F08
:10037000A1E0B0E07B01FB01EE0FFF1FEE0FFF1FBE
:10038000EE0FFF1FE40FF51FEE0FFF1FE75EFE4F9E
:100390000190F081E02DEC17FD0719F4683071052C
:1003A000A0F0F70123E0EE0FFF1F2A95E1F7E40F1D
:1003B000F51FEE0FFF1FE75EFE4F208131812817EA
:1003C000390761F080E090E00BC0620F731F483086
:1003D000510538F71196400F511FCCCFCD01019731
:1003E000DF91CF911F910F91FF90EF900895CF92E1
:1003F000DF92EF92FF920F931F93CF93DF937C01D5
:10040000EB016A01FB0143E0EE0FFF1F4A95E1F7A4
:10041000E80FF91FEE0FFF1FE75EFE4F808191810D
:10042000069709F057C000E010E02FEF3FEFA7015B
:10043000C6018CDF892BF1F400E010E021E030E010
:10044000A701BE01C60182DF892BA1F40FEF1FEFC8
:1004500020E030E0A701BE01C60178DF892B51F40E
:1004600001E010E020E030E0A701BE01C6016EDF30
:10047000892B11F081E02FC00FEF1FEF2FEF3FEF1F
:10048000A701BE01C60162DF892BA1F701E010E0E0
:100490002FEF3FEFA701BE01C60158DF892B51F7AF
:1004A0000FEF1FEF21E030E0A701BE01C6014EDFD4
:1004B000892B01F701E010E021E030E0A701BE0147
:1004C000C60144DF31E020E0892B09F430E0832FBE
:1004D000922F02C080E090E0DF91CF911F910F91A9
:1004E000FF90EF90DF90CF9008956F927F928F9260
:1004F0009F92AF92BF92CF92DF92EF92FF920F93B3
:100500001F93CF93DF936C015B013A0170DF892B5E
:1005100009F463C0CFEFDFEFEE24EA94FE2C4E0126
:100520008A0C9B1C209759F4E114F10441F48FEFDD
:10053000E81AF80A82E0E816F104A1F724C087015E
:100540009E01A601B501C30101DFA401B7016C0D35
:100550007D1D21E030E0821793074CF3FA01A3E000
:10056000EE0FFF1FAA95E1F7E60FF71FEE0FFF1F33
:10057000E75EFE4F718260822F5F3F4F6E0D7F1DE1
:100580004C0F5D1FE8CF2196C230D10529F6F50149
:1005900063E0EE0FFF1F6A95E1F7EC0DFD1DEE0F16
:1005A000FF1FE75EFE4F7182608286E78093B30093
:1005B00083E08093050182E18093B0008091A501E2
:1005C0009091A601019719F485E090E002C081E0C6
:1005D00090E09093A6018093A501DF91CF911F91A8
:1005E0000F91FF90EF90DF90CF90BF90AF909F90D2
:1005F0008F907F906F900895EF92FF920F931F93CB
:10060000CF93DF937C0100E010E0C0E0D0E0A701D1
:10061000B801CE01ECDE019771F12196C830D10509
:10062000B1F70F5F1F4F0830110579F780E090E0B8
:1006300020E030E040E050E0BC01C3E0660F771FEF
:10064000CA95E1F7FB01E40FF51FEE0FFF1FE75E10
:10065000FE4F0190F081E02D319711F42F5F3F4F55
:100660004F5F5F4F4830510569F70196883091051B
:1006700009F7C90102C080E090E0DF91CF911F919E
:100680000F91FF90EF900895E3E0220F331FEA955A
:10069000E1F7240F351F220F331F275E3E4FF9016C
:1006A00040815181A3E0660F771FAA95E1F7680F9B
:1006B000791F660F771F675E7E4FFB0180819181F6
:1006C000F90191838083FB01518340830895EF9268
:1006D000FF920F931F93CF93DF9340E050E020E011
:1006E00030E080E090E060E070E0EA01E3E0CC0F11
:1006F000DD1FEA95E1F7DE01A60FB71FAA0FBB1FAA
:10070000A75EBE4FED91FC9111973197F1F4F9017D
:1007100013E0EE0FFF1F1A95E1F7E80FF91FEE0F38
:10072000FF1FE75EFE4F00811181ED90FC90119755
:10073000F182E08211961C930E9301968830910508
:1007400021F42F5F3F4F80E090E06F5F7F4F683074
:10075000710589F64F5F5F4F4830510521F640E043
:1007600050E060E070E0EA0113E0CC0FDD1F1A9565
:10077000E1F7DE01A60FB71FAA0FBB1FA75EBE4F92
:10078000ED91FC9111973597F1F4F90103E0EE0F2B
:10079000FF1F0A95E1F7E80FF91FEE0FFF1FE75E55
:1007A000FE4F00811181ED90FC901197F182E08263
:1007B00011961C930E9301968830910521F42F5FBA
:1007C0003F4F80E090E06F5F7F4F6830710589F6A2
:1007D0004F5F5F4F4830510521F6DF91CF911F9158
:1007E0000F91FF90EF90089580910C0190910D0171
:1007F000019739F46CDF82E090E090930D018093D3
:100800000C0108958F929F92AF92BF92CF92DF9288
:10081000EF92FF920F931F93CF93DF93CDB7DEB785
:10082000C058D1090FB6F894DEBF0FBECDBF5C0132
:10083000812C912CC12CD12C00E010E0E12CF12C6A
:10084000A501B601C701D3DD019781F4F801EE0FD0
:10085000FF1F81E090E08C0F9D1FE80FF91FC7017B
:10086000880D991D918380830F5F1F4F9FEFE91AB9
:10087000F90AE8E0EE16F10419F7FFEFCF1ADF0AE4
:1008800088E0880E911C98E0C916D104B9F60115CC
:10089000110549F1BDD1B8014AD1880F991F8C0FBC
:1008A0009D1FFC0181819281BC0197FF02C0695F9D
:1008B0007F4F9B01A3E035952795AA95E1F768E066
:1008C00070E035D1A501B90110DE8091A5019091AC
:1008D000A60192DE1816190634F481E090E0909398
:1008E0000D0180930C01C058DF4F0FB6F894DEBFA6
:1008F0000FBECDBFDF91CF911F910F91FF90EF9071
:10090000DF90CF90BF90AF909F908F9008951F92EF
:100910000F920FB60F9211242F933F934F935F9333
:100920006F937F938F939F93AF93BF93EF93FF93B7
:10093000809109018F5F80930901823390F01092BA
:10094000090180910501882349F0809105018150BA
:1009500080930501811102C01092B00081E0809364
:100960000B0180919B0190919C01019690939C01B9
:1009700080939B01843F91406CF010929C011092F7
:100980009B018091A5019091A601059719F485E03E
:1009900090E038DF809107019091080101969093D3
:1009A0000801809307018A3F9105C4F01092080165
:1009B000109207018091A5019091A6012091A301B9
:1009C0003091A4012817390719F426E080E002C00D
:1009D000282F892F2093A3018093A401FF91EF91E9
:1009E000BF91AF919F918F917F916F915F914F9147
:1009F0003F912F910F900FBE0F901F90189530DCF4
:100A000005DC81DC1EDC94DC8ADC789410920B011E
:100A1000A89580910401882339F180910E0190916D
:100A20000F018037974130F480910E0190910F01B2
:100A3000019602C080E090E090930F0180930E0138
:100A400080910E0190910F01892B71F486B190E095
:100A500080959095F4E095958795FA95E1F78370E8
:100A600080931801109204019091180180919A01CD
:100A7000981709F455C08091180180939A018091CC
:100A80009A018230A9F0833019F1813009F048C011
:100A900080919F019091A0011816190614F40197F6
:100AA00002C087E090E09093A00180939F0138C03E
:100AB0008091A1019091A2018730910514F40196D3
:100AC00002C080E090E09093A2018093A10128C031
:100AD000C091A501D091A601C130D10509F5809141
:100AE0000C0190910D01892BD9F46091A1017091B5
:100AF000A20141E050E080919F019091A001F5DCBE
:100B00008091A5019091A60177DD1816190624F4AD
:100B1000D0930D01C0930C0110929C0110929B0187
:100B200080910B01882309F473CF5EDE6FCF97FBB2
:100B3000072E16F4009406D077FD08D00BD007FCE2
:100B400005D03EF4909581959F4F089570956195DD
:100B50007F4F0895AA1BBB1B51E107C0AA1FBB1FF3
:100B6000A617B70710F0A61BB70B881F991F5A9539
:100B7000A9F780959095BC01CD0108958F929F9221
:100B8000AF92BF92CF92DF92EF92FF92CF93DF931B
:100B9000EC01688179818A819B81611571058105EC
:100BA000910521F464E279ED8BE597E02DE133EFD7
:100BB00041E050E062D049015A019B01AC01A7EA33
:100BC000B1E477D06B017C01ACEEB4EFA5019401E8
:100BD0007CD0C60ED71EE81EF91EF7FE06C081E0C7
:100BE000C81AD108E10880E8F80AC882D982EA82E6
:100BF000FB82C6019F77DF91CF91FF90EF90DF904E
:100C0000CF90BF90AF909F908F900895B7DF0895D9
:100C100080E091E0B3DF0895A0E0B0E080930001B0
:100C200090930101A0930201B09303010895A8E1FC
:100C3000B0E042E050E005C012D0272F11C0DC0127
:100C4000CB01FC01F999FECF06C0F2BDE1BDF89AD7
:100C5000319600B40D9241505040B8F70895262FB8
:100C6000F999FECF1FBA92BD81BD20BD0FB6F89491
:100C7000FA9AF99A0FBE01960895052E97FB16F47D
:100C800000940FD057FD05D024D007FC02D046F4C5
:100C900008C050954095309521953F4F4F4F5F4F7D
:100CA000089590958095709561957F4F8F4F9F4FD8
:100CB000089531D0A59F900DB49F900DA49F800DF5
:100CC000911D11240895B7FFF4CFF3DF821B930B1E
:100CD0000895A1E21A2EAA1BBB1BFD010DC0AA1F7D
:100CE000BB1FEE1FFF1FA217B307E407F50720F095
:100CF000A21BB30BE40BF50B661F771F881F991F10
:100D00001A9469F760957095809590959B01AC0158
:100D1000BD01CF010895A29FB001B39FC001A39F61
:100D200001D0B29F700D811D1124911D0895F8947A
:020D3000FFCFF3
:040D320001000000BC
:00000001FF
