:1000000019C028C027C026C0B8C024C023C023C040
:1000100021C020C01FC01EC01DC01CC01BC01AC0F4
:1000200019C018C017C016C015C014C013C012C024
:1000300011C010C011241FBECFEFD4E0DEBFCDBF72
:1000400021E0A0E0B1E001C01D92A239B207E1F7C2
:1000500008D16DC1D5CF1F920F920FB60F92112408
:100060000F931F932F933F934F935F936F937F93C0
:100070008F939F93AF93BF93CF93DF93EF93FF93B0
:1000800015B8E0910101F0E0EB5FFE4F1082809126
:1000900001018F5F8770809301012091010181E050
:1000A00090E0022E01C0880F0A94EAF78095982FFD
:1000B0009F70906398B9807F8BB9809190019091E7
:1000C0009101873E934034F4809190019091910189
:1000D000019602C080E090E090939101809390019E
:1000E00020E030E0C7E0D0E001E010E08091900136
:1000F0009091910140910101F90158E0459FE00D77
:10010000F11D1124EE0FFF1FE25FFE4F6081718130
:10011000E7D0892B89F4E0910101F0E0EB5FFE4F1D
:100120004081CE01821B930BB80102C0660F771F7E
:100130008A95E2F7462B40832F5F3F4F28303105E9
:10014000A9F6E0910101F0E0EB5FFE4F808185B9F7
:10015000FF91EF91DF91CF91BF91AF919F918F91DF
:100160007F916F915F914F913F912F911F910F91CF
:100170000F900FBE0F901F9018951F920F920FB601
:100180000F9211248F9380910001811103C081E0AF
:1001900080930001D99A8F910F900FBE0F901F90FE
:1001A0001895109291011092900180E090E068EE15
:1001B00073E020E030E0AC01E3E0440F551FEA9526
:1001C000E1F7FA01E20FF31FEE0FFF1FE25FFE4FB0
:1001D000718360832F5F3F4F2830310591F701967F
:1001E0008830910531F781E090E09093450180934C
:1001F0004401909357018093560185E090E09093DD
:1002000047018093460190935501809354010895CE
:100210008FEF84B98FE087B98AEF8AB980E388B914
:100220001BB815B882E08093B00083E08093B100E2
:1002300080EA8093B300E0E7F0E080818260808311
:100240000895E8E6F0E080818260808380E3809317
:100250006C0080930D0180938E0110928F010895A0
:1002600008959FDFD5DFEDDF789410920201A89505
:1002700080910001882339F180910301909104015C
:10028000883B9B4030F480910301909104010196DA
:1002900002C080E090E0909304018093030180917C
:1002A000030190910401892B71F486B190E080954F
:1002B0009095B4E095958795BA95E1F78370809312
:1002C0000D011092000190910D0180918F019817FE
:1002D00071F280910D0180938F0180918F01C7CFC2
:1002E00097FB072E16F4009406D077FD08D00BD0AC
:1002F00007FC05D03EF4909581959F4F0895709529
:1003000061957F4F0895AA1BBB1B51E107C0AA1F2F
:10031000BB1FA617B70710F0A61BB70B881F991FA6
:100320005A95A9F780959095BC01CD010895F89450
:02033000FFCFFD
:00000001FF
