:1000000019C033C032C031C070C52FC02EC02DC042
:100010002CC02BC02AC015C428C027C0D3C525C0FA
:1000200024C023C022C021C020C01FC01EC01DC0CC
:100030001CC01BC011241FBECFEFD4E0DEBFCDBF5C
:1000400011E0A0E0B1E0EEEAF0E102C005900D920F
:10005000A63BB107D9F722E0A6EBB1E001C01D92A3
:10006000A036B207E1F7CCD620C8CACF4F925F9234
:100070006F927F928F929F92AF92BF92CF92DF92B8
:10008000EF92FF920F931F93CF93DF93CDB7DEB71D
:10009000DA950FB6F894DEBF0FBECDBF3C01FE016E
:1000A0003196CE018F5F9E4F5F01118210821382C5
:1000B00012823496E817F907C1F7812C912CC12CD4
:1000C000D12CE12CF12C00E010E02601F3E0440CEF
:1000D000551CFA95E1F7A301B601C80157D1019764
:1000E000E9F4D701AA0FBB1FAA0FBB1FAA0DBB1DA6
:1000F000C801880D991D11969C938E93F201E00F13
:10010000F11FEE0FFF1FE050FF4F8081918113968A
:100110009C938E9312978FEFE81AF80A0F5F1F4F88
:1001200008301105C1F6EFEFCE1ADE0AF8E08F0EA7
:10013000911C88E0C816D10431F6DE01139660E008
:1001400070E080E090E08E159F05A4F49B01220FE3
:10015000331F220F331F2A0D3B1DF90142815381AA
:100160002D913C911197421753070CF4BC01019655
:100170001496E9CFEF28E9F0FB01EE0FFF1FEE0F19
:10018000FF1FEA0DFB1D80819181BC0197FF02C01A
:10019000695F7F4F9B0143E0359527954A95E1F7CD
:1001A00068E070E082D6A301B9016ED181E090E0F1
:1001B00002C080E090E0D3950FB6F894DEBF0FBE8A
:1001C000CDBFDF91CF911F910F91FF90EF90DF9006
:1001D000CF90BF90AF909F908F907F906F905F90E7
:1001E0004F9008958F929F92AF92BF92CF92DF92DD
:1001F000EF92FF920F931F93CF93DF93CDB7DEB7AC
:10020000C058D1090FB6F894DEBF0FBECDBF5C0158
:10021000812C912CC12CD12C00E010E0E12CF12C90
:10022000A501B601C701B2D0019781F4F801EE0F24
:10023000FF1F81E090E08C0F9D1FE80FF91FC701A1
:10024000880D991D918380830F5F1F4F9FEFE91ADF
:10025000F90AE8E0EE16F10419F7FFEFCF1ADF0A0A
:1002600088E0880E911C98E0C916D104B9F60115F2
:100270001105F1F0A6D4B80118D6880F991F8C0F7C
:100280009D1FFC0181819281BC0197FF02C0695FC3
:100290007F4F9B0143E0359527954A95E1F768E04C
:1002A00070E003D6A501B901EFD081E090E002C073
:1002B00080E090E0C058DF4F0FB6F894DEBF0FBE6D
:1002C000CDBFDF91CF911F910F91FF90EF90DF9005
:1002D000CF90BF90AF909F908F900895EF92FF9234
:1002E0000F931F93CF93DF9378018130910519F419
:1002F00005E010E002C001E010E0620F731F4E0D38
:100300005F1DC1E0D0E0FB01DB01AA0FBB1FAA0FFC
:10031000BB1FAA0FBB1FA40FB51FAA0FBB1FA05363
:10032000BE4F0D90BC91A02DA017B10719F46830F5
:10033000710520F0E830F10550F01FC0620F731F07
:1003400048305105B8F721964E0D5F1DDCCF48307F
:10035000510598F423E0EE0FFF1F2A95E1F7E40F13
:10036000F51FEE0FFF1FE053FE4F2081318128174C
:10037000390719F4CE01019702C080E090E0DF91C7
:10038000CF911F910F91FF90EF900895CF92DF9240
:10039000EF92FF920F931F93CF93DF937C01EB01BA
:1003A0006A01FB0183E0EE0FFF1F8A95E1F7EE0D76
:1003B000FF1DEE0FFF1FE053FE4F808191810697D6
:1003C00009F057C000E010E02FEF3FEFA701C60192
:1003D00085DF892BF1F400E010E021E030E0A70197
:1003E000BE01C6017BDF892BA1F40FEF1FEF20E0D8
:1003F00030E0A701BE01C60171DF892B51F401E095
:1004000010E020E030E0A701BE01C60167DF892BC4
:1004100011F081E02FC00FEF1FEF2FEF3FEFA7018B
:10042000BE01C6015BDF892BA1F701E010E02FEFD1
:100430003FEFA701BE01C60151DF892B51F70FEF36
:100440001FEF21E030E0A701BE01C60147DF892B85
:1004500001F701E010E021E030E0A701BE01C60194
:100460003DDF31E020E0892B09F430E0832F922F2B
:1004700002C080E090E0DF91CF911F910F91FF903B
:10048000EF90DF90CF9008956F927F928F929F921E
:10049000AF92BF92CF92DF92EF92FF920F931F9392
:1004A000CF93DF936C015B013A0170DF892B09F474
:1004B0005DC0CFEFDFEFEE24EA94FE2C4E018A0CF4
:1004C0009B1C209759F4E114F10441F48FEFE81AD2
:1004D000F80A82E0E816F104A1F724C087019E0122
:1004E000A601B501C301FADEA401B7016C0D7D1DA3
:1004F00021E030E0821793074CF3FA01A3E0EE0FFE
:10050000FF1FAA95E1F7E60FF71FEE0FFF1FE0535D
:10051000FE4F718260822F5F3F4F6E0D7F1D4C0F2B
:100520005D1FE8CF2196C230D10529F6F50123E001
:10053000EE0FFF1F2A95E1F7EC0DFD1DEE0FFF1FDB
:10054000E053FE4F7182608263E086E7AFD2DF91B5
:10055000CF911F910F91FF90EF90DF90CF90BF90C0
:10056000AF909F908F907F906F906CC2DF91CF91F2
:100570001F910F91FF90EF90DF90CF90BF90AF90C1
:100580009F908F907F906F900895EF92FF920F93BE
:100590001F93CF93DF937C0100E010E0C0E0D0E038
:1005A000A701B801CE01F2DE019771F12196C830A2
:1005B000D105B1F70F5F1F4F0830110579F780E0C3
:1005C00090E020E030E040E050E0BC01C3E0660F86
:1005D000771FCA95E1F7FB01E40FF51FEE0FFF1F30
:1005E000E053FE4F0190F081E02D319711F42F5F21
:1005F0003F4F4F5F5F4F4830510569F70196883094
:10060000910509F7C90102C080E090E0DF91CF9128
:100610001F910F91FF90EF900895E3E0220F331F99
:10062000EA95E1F7240F351F220F331F20533E4F69
:10063000F90140815181A3E0660F771FAA95E1F788
:10064000680F791F660F771F60537E4FFB01808113
:100650009181F90191838083FB0151834083089547
:10066000CF92DF92EF92FF920F931F93CF93DF937E
:1006700040E050E020E030E080E090E060E070E0BA
:10068000EA01A3E0CC0FDD1FAA95E1F7DE01A60F7A
:10069000B71FAA0FBB1FA053BE4FED91FC9111973E
:1006A0003197F1F4F90113E0EE0FFF1F1A95E1F70E
:1006B000E80FF91FEE0FFF1FE053FE4F008111817D
:1006C000ED90FC901197F182E08211961C930E93AD
:1006D00001968830910521F42F5F3F4F80E090E034
:1006E0006F5F7F4F6830710589F64F5F5F4F48300D
:1006F000510521F6A901F3E0440F551FFA95E1F7E2
:10070000480F591F60E070E0C0E0D0E08B01E3E0EB
:10071000000F111FEA95E1F7D801AC0FBD1FAA0F1A
:10072000BB1FA053BE4FED91FC9111973597F9F483
:10073000F901EE0FFF1FEE0FFF1FEE0FFF1FE80F77
:10074000F91FEE0FFF1FE053FE4FE080F180CD90C8
:10075000DC901197D182C0821196FC92EE920196A4
:100760008830910521F42F5F3F4F80E090E0219683
:10077000C830D10589F66F5F7F4F6830710521F66B
:10078000C3E0220F331FCA95E1F7BA01621B730B56
:100790009B01280F391F2417350714F481E001C08D
:1007A00085E080935002DF91CF911F910F91FF90D0
:1007B000EF90DF90CF90089581E090E09093B701A3
:1007C0008093B60108951092B7011092B601089572
:1007D00080E090E066E070E020E030E0AC01E3E033
:1007E000440F551FEA95E1F7FA01E20FF31FEE0FF0
:1007F000FF1FE053FE4F718360832F5F3F4F283010
:10080000310591F7FC01EF5AFD4F108201968830B7
:10081000910511F7089510925A0210925902D8DFEB
:10082000109280008AE08093810084EF91E09093A1
:10083000890080938800EFE6F0E080818260808309
:1008400008951F920F920FB60F921124DF92EF922C
:10085000FF920F931F932F933F934F935F936F9349
:100860007F938F939F93AF93BF93CF93DF93EF9338
:10087000FF9315B88091B8018F5F87708093B8019E
:100880002091B80181E090E0022E01C0880F0A9407
:10089000EAF78095E091B801F0E0EF5AFD4F108241
:1008A000982F9F70906398B9807F8BB9809159027F
:1008B00090915A02059734F48091590290915A020E
:1008C000019602C081E090E090935A028093590211
:1008D000C0E0D0E007E010E0EE24E394F12C80913A
:1008E000B6019091B701019791F4D090B8017BD0F7
:1008F0002D2D30E0A801481B590B2417350739F47A
:100900006DD08C179D0719F473D0BC0112C0809173
:10091000B801F801E81BF109B3E0EE0FFF1FBA952B
:10092000E1F7EC0FFD1FEE0FFF1FE053FE4F60815C
:1009300071818091590290915A02B7D2892B89F422
:10094000E091B801F0E0EF5AFD4F2081C8018C1B07
:100950009D0BA70102C0440F551F8A95E2F7242B77
:1009600020832196C830D10509F0B9CFE091B801B4
:10097000F0E0EF5AFD4F808185B9FF91EF91DF9153
:10098000CF91BF91AF919F918F917F916F915F9127
:100990004F913F912F911F910F91FF90EF90DF901A
:1009A0000F900FBE0F901F9018959093BE018093EB
:1009B000BD017093C0016093BF015093BC0140938F
:1009C000BB013093BA012093B9015093C401409305
:1009D000C3015093C2014093C10108958091BD01AC
:1009E0009091BE0108958091BF019091C00108953A
:1009F0008091C1019091C20108958091BD019091B3
:100A0000BE011816190614F4019702C087E090E0A1
:100A10009093BE018093BD0108958091BF01909194
:100A2000C0018730910514F4019602C080E090E087
:100A30009093C0018093BF0108958091C30190916C
:100A4000C40108958091BB019091BC012091C30124
:100A50003091C4012817390729F48091B901909188
:100A6000BA0104C08091BB019091BC019093C40174
:100A70008093C30108958091C3019091C401209196
:100A8000C1013091C2012817390719F426E080E02E
:100A900002C0282F892F2093C1018093C20108959D
:100AA0001092B00084E48093B10008958093B30065
:100AB00070E07093C6016093C50182E18093B0003D
:100AC00008958091C5019091C601892B69F08091AC
:100AD000C5019091C60101979093C6018093C5010D
:100AE000892B11F41092B00008951F920F920FB647
:100AF0000F9211248F938091C701811103C081E06F
:100B00008093C701D99A8F910F900FBE0F901F90BD
:100B10001895E8E6F0E080818260808380E380932E
:100B20006C0080935D0280935E0210925F020895D4
:100B30008091C701882339F180915B0290915C021A
:100B4000803A9F4030F480915B0290915C02019664
:100B500002C080E090E090935C0280935B02809101
:100B60005B0290915C02892B71F486B190E08095D4
:100B7000909524E0959587952A95E1F78370809369
:100B80005D021092C701089590915D0280915F020D
:100B9000981739F080915D0280935F0281E090E0C8
:100BA000089580E090E0089580915F0290E00895BC
:100BB00080E090E0FAD1EED1E9D1BC0180E090E094
:100BC000F9C1E4C11F920F920FB60F9211242F9317
:100BD0003F934F935F936F937F938F939F93AF93C5
:100BE000BF93EF93FF938091CB018F5F8093CB01F5
:100BF000823318F01092CB0164DF809180019091D4
:100C00008101892B71F119DF059759F58091CC018C
:100C10009091CD0101969093CD018093CC01843FBA
:100C20009140FCF01092CD011092CC018091800196
:100C3000909181018130910529F0029791F4FDDEB8
:100C400015DA02C0FADECEDA019759F4F6DE9DDC41
:100C50001816190634F483E090E09093CF01809346
:100C6000CE018091C9019091CA0101969093CA0169
:100C70008093C9018A3F91052CF01092CA0110920D
:100C8000C901F9DEFF91EF91BF91AF919F918F91D3
:100C90007F916F915F914F913F912F910F900FBE78
:100CA0000F901F90189589EF87BD82E084BD83E087
:100CB00085BDEEE6F0E080818260808308950F9329
:100CC0001F93CF93DF9360DF892B99F16DDF823023
:100CD000910551F08330910561F0019751F5DF9155
:100CE000CF911F910F9189CEDF91CF911F910F91DD
:100CF00094CEA3DE019731F0809180019091810123
:100D0000892BB9F49ADE8C016EDEEC0167DEA80156
:100D1000BE01BADB92DE39DC1816190634F483E022
:100D200090E09093CF018093CE011092CD0110926C
:100D3000CC01DF91CF911F910F9108958091800197
:100D400090918101029734F480918001909181010A
:100D5000019602C080E090E0909381018093800131
:100D600037DD80E090E0A7E0B0E020E030E0BC01BB
:100D700043E0660F771F4A95E1F7E0918001F0911B
:100D8000810143E0EE0FFF1F4A95E1F7E80FF91FDD
:100D9000EE57FE4F408150E0FD01E21BF30B02C015
:100DA00055954795EA95E2F740FF03C041E050E0D2
:100DB00002C046E050E0FB01E20FF31FEE0FFF1F01
:100DC000E053FE4F518340832F5F3F4F2830310562
:100DD000A1F601968830910541F60895D5DE892B5C
:100DE00071F0E2DE8130910519F0029711F008955B
:100DF000A5CF81E090E09093CF018093CE0108953C
:100E00008FEF84B98FE087B98AEF8AB980E388B918
:100E10001BB815B800DD47DF7CDE42DEC9DE10926C
:100E2000CF011092CE01CFDC89DF789405E010E08D
:100E3000A8957EDEC091CE01D091CF01C130D10501
:100E400079F024F4CD2BA1F7C9DFF2CFC230D10560
:100E500029F1239769F7B7DC03DC84E090E020C038
:100E6000B7DCD0930702C0930602D0931902C09357
:100E700018021093090200930802109317020093BE
:100E8000160225E030E041E050E064E070E082E0EE
:100E900090E08BDD91DC82E090E002C010DFC8CFF3
:100EA0009093CF018093CE01C3CF97FB072E16F40A
:100EB000009406D077FD08D00BD007FC05D03EF497
:100EC000909581959F4F0895709561957F4F0895F6
:100ED000AA1BBB1B51E107C0AA1FBB1FA617B70760
:100EE00010F0A61BB70B881F991F5A95A9F780957C
:100EF0009095BC01CD0108958F929F92AF92BF92C1
:100F0000CF92DF92EF92FF92CF93DF93EC01688153
:100F100079818A819B81611571058105910521F493
:100F200064E279ED8BE597E02DE133EF41E050E0AD
:100F300062D049015A019B01AC01A7EAB1E477D024
:100F40006B017C01ACEEB4EFA50194017CD0C60E20
:100F5000D71EE81EF91EF7FE06C081E0C81AD108A8
:100F6000E10880E8F80AC882D982EA82FB82C601D9
:100F70009F77DF91CF91FF90EF90DF90CF90BF9060
:100F8000AF909F908F900895B7DF089582EB91E026
:100F9000B3DF0895A0E0B0E08093B2019093B30175
:100FA000A093B401B093B5010895A8E1B0E042E088
:100FB00050E005C012D0272F11C0DC01CB01FC018D
:100FC000F999FECF06C0F2BDE1BDF89A319600B4A2
:100FD0000D9241505040B8F70895262FF999FECF51
:100FE0001FBA92BD81BD20BD0FB6F894FA9AF99A46
:100FF0000FBE01960895052E97FB16F400940FD0AE
:1010000057FD05D024D007FC02D046F408C0509507
:101010004095309521953F4F4F4F5F4F08959095E4
:101020008095709561957F4F8F4F9F4F089531D078
:10103000A59F900DB49F900DA49F800D911D11242C
:101040000895B7FFF4CFF3DF821B930B0895A1E25D
:101050001A2EAA1BBB1BFD010DC0AA1FBB1FEE1F32
:10106000FF1FA217B307E407F50720F0A21BB30B7D
:10107000E40BF50B661F771F881F991F1A9469F7F9
:1010800060957095809590959B01AC01BD01CF0155
:101090000895A29FB001B39FC001A39F01D0B29F4A
:0E10A000700D811D1124911D0895F894FFCF4D
:1010AE001E00F4FF0000FFFFFFFF0000F4FF1E0014
:1010BE00F4FFF1FFFDFFFDFFFDFFFDFFF1FFF4FF6C
:1010CE000000FDFF0000FFFFFFFF0000FDFF00001E
:1010DE00FFFFFDFFFFFFFFFFFFFFFFFFFDFFFFFF16
:1010EE00FFFFFDFFFFFFFFFFFFFFFFFFFDFFFFFF06
:1010FE000000FDFF0000FFFFFFFF0000FDFF0000EE
:10110E00F4FFF1FFFDFFFDFFFDFFFDFFF1FFF4FF1B
:10111E001E00F4FF0000FFFFFFFF0000F4FF1E00A3
:10112E000200C0A0C0A8160506044EA4E4AE0086B8
:10113E00AAD74EA4E4AE0285AAD7EE02EE02EE02C4
:10114E00EE02EE020002EE02EE02EE02EE02EE02FF
:06115E0000020100000088
:00000001FF
