:1000000019C028C027C026C01EC124C023C065C097
:1000100021C020C01FC01EC01DC01CC01CC01AC0F3
:1000200019C018C017C016C015C014C013C012C024
:1000300011C010C011241FBECFEFD4E0DEBFCDBF72
:1000400021E0A0E0B1E001C01D92AF39B207E1F7B5
:10005000D7D387C4D5CF1F920F920FB60F9211241A
:100060002F933F938F939F93809105018F5F809390
:100070000501823328F01092050181E08093070189
:100080008091030190910401019690930401809363
:1000900003018A3F9105C4F01092040110920301FC
:1000A00080919D0190919E0120919B0130919C0136
:1000B0002817390719F428EE83E002C0282F892F6A
:1000C00020939B0180939C019F918F913F912F9151
:1000D0000F900FBE0F901F9018951F920F920FB6A2
:1000E0000F921124BF92CF92DF92EF92FF920F9363
:1000F0001F932F933F934F935F936F937F938F93B0
:100100009F93AF93BF93CF93DF93EF93FF9315B874
:10011000E0910601F0E0E65FFE4F1082809106015B
:100120008F5F8770809306012091060181E090E047
:10013000022E01C0880F0A94EAF78095982F9F70CD
:10014000906398B9807F8BB98091950190919601C9
:10015000873E934034F480919501909196010196E9
:1001600002C080E090E09093960180939501C09149
:100170009901D0919A0100919701109198014091B5
:100180009B01B0909C0120E030E097E0E92EF12C3B
:10019000CC24C394D12C8091060190E08C179D074C
:1001A00019F40217130779F080910601F90168E04C
:1001B000869FE00DF11D1124EE0FFF1FED5EFE4F37
:1001C0006081718102C0642F7B2D80919501909197
:1001D0009601A0D3892B89F4E0910601F0E0E65F57
:1001E000FE4F5081C701821B930BB60102C0660F00
:1001F000771F8A95E2F7562B50832F5F3F4F2830A9
:10020000310549F6E0910601F0E0E65FFE4F80819E
:1002100085B9FF91EF91DF91CF91BF91AF919F9100
:100220008F917F916F915F914F913F912F911F918E
:100230000F91FF90EF90DF90CF90BF900F900FBE87
:100240000F901F9018951F920F920FB60F921124C6
:100250008F9380910001811103C081E080930001A0
:10026000D99A8F910F900FBE0F901F9018958FEF16
:1002700084B99FE097B99AEF9AB990E398B91BB8FF
:1002800085B982E08093B00083E08093B10080EA7A
:100290008093B300E0E7F0E080818260808308957E
:1002A000E8E6F0E080818260808380E380936C00E8
:1002B00080931201809393011092940108951092FB
:1002C00096011092950180E090E068EE73E020E0E6
:1002D00030E0AC01E3E0440F551FEA95E1F7FA0185
:1002E000E20FF31FEE0FFF1FED5EFE4F7183608381
:1002F0002F5F3F4F2830310591F7FC01E65FFE4F3D
:10030000108201968830910511F781E090E090937A
:100310004A018093490190935C0180935B0125E041
:1003200030E030934C0120934B0130935A012093DD
:10033000590122E030E0309398012093970124E0A6
:1003400030E030939A012093990190939E0180931D
:100350009D0190939C0180939B0110920201109249
:100360000101089589EF87BD82E084BD83E085BDEA
:10037000EEE6F0E08081826080830895CF92DF9284
:10038000EF92FF920F931F93CF93DF9381309105EC
:1003900019F4E5E0F0E002C0E1E0F0E0620F731F65
:1003A000400F511FC1E0D0E06B017A01DB01AA0FC1
:1003B000BB1FAA0FBB1FAA0FBB1FA40FB51FAA0FFD
:1003C000BB1FAD5EBE4F0D90BC91A02D620F731F81
:1003D000400F511FAE17BF0711F42196E5CFF6016C
:1003E000B3E0EE0FFF1FBA95E1F7EE0DFF1DEE0F24
:1003F000FF1FED5EFE4F208131812817390719F468
:10040000CE01019702C080E090E0DF91CF911F9173
:100410000F91FF90EF90DF90CF900895CF92DF92F1
:10042000EF92FF920F931F93CF93DF937C01EB0129
:100430006A016830710508F06DC08830910508F0D8
:1004400069C0FB0183E0EE0FFF1F8A95E1F7EE0D17
:10045000FF1DEE0FFF1FED5EFE4F80819181883EF4
:10046000934009F057C000E010E02FEF3FEFA701E5
:10047000C60184DF892BA1F400E010E021E030E028
:10048000A701BE01C6017ADF892B51F40FEF1FEFE0
:1004900020E030E0A701BE01C60170DF892B11F01A
:1004A00081E039C001E010E020E030E0A701BE01AA
:1004B000C60164DF892BA1F70FEF1FEF2FEF3FEF8E
:1004C000A701BE01C6015ADF892B51F701E010E0F8
:1004D0002FEF3FEFA701BE01C60150DF892B01F7C7
:1004E0000FEF1FEF21E030E0A701BE01C60146DF9C
:1004F000892BB1F601E010E021E030E0A701BE0158
:10050000C6013CDF31E020E0892B09F430E0832F85
:10051000922F02C080E090E0DF91CF911F910F9168
:10052000FF90EF90DF90CF9008956F927F928F921F
:100530009F92AF92BF92CF92DF92EF92FF920F9372
:100540001F93CF93DF936C015B013A0167DF892B27
:1005500009F45AC0CFEFDFEFEE24EA94FE2C4E01EF
:100560008A0C9B1C209759F4E114F10441F48FEF9D
:10057000E81AF80A82E0E816F104A1F724C087011E
:100580009E01A601B501C301F9DEA401B7016C0DFE
:100590007D1D21E030E0821793074CF3FA01A3E0C0
:1005A000EE0FFF1FAA95E1F7E60FF71FEE0FFF1FF3
:1005B000ED5EFE4F718260822F5F3F4F6E0D7F1D9B
:1005C0004C0F5D1FE8CF2196C230D10529F6F50109
:1005D00023E0EE0FFF1F2A95E1F7EC0DFD1DEE0F56
:1005E000FF1FED5EFE4F7182608280919D019091B0
:1005F0009E01019719F485E090E002C081E090E04F
:1006000090939E0180939D01DF91CF911F910F9157
:10061000FF90EF90DF90CF90BF90AF909F908F9022
:100620007F906F900895EF92FF920F931F93CF9357
:10063000DF937C0100E010E0C0E0D0E0A701B8014A
:10064000CE01ECDE019771F12196C830D105B1F7EA
:100650000F5F1F4F0830110579F780E090E020E030
:1006600030E040E050E0BC01C3E0660F771FCA9560
:10067000E1F7FB01E40FF51FEE0FFF1FED5EFE4FEC
:100680000190F081E02D319711F42F5F3F4F4F5FC4
:100690005F4F4830510569F701968830910509F799
:1006A000C90102C080E090E0DF91CF911F910F91CE
:1006B000FF90EF900895AF92BF92CF92DF92EF92AA
:1006C000FF920F931F93CF93DF9300E010E0C7E0FA
:1006D000D0E067E070E040E050E020E030E080E013
:1006E00090E07801E3E0EE0CFF1CEA95E1F7D7011A
:1006F000A80FB91FAA0FBB1FAD5EBE4FED91FC91B5
:100700001197319739F5FA01EE0FFF1FEE0FFF1F1A
:10071000EE0FFF1FE20FF31FEE0FFF1FED5EFE4F08
:10072000A080B180CD90DC901197D182C0821196CB
:10073000BC92AE92273031051CF42F5F3F4F02C0B0
:1007400020E030E0473051051CF44F5F5F4F02C09E
:1007500040E050E0D701A80FB91FAA0FBB1FAD5E44
:10076000BE4FED91FC911197359731F5FE01EE0FDB
:10077000FF1FEE0FFF1FEE0FFF1FE60FF71FEE0F1D
:10078000FF1FED5EFE4FA080B180CD90DC901197F1
:10079000D182C0821196BC92AE92161617061CF436
:1007A0006150710902C067E070E01C161D0614F468
:1007B000219702C0C7E0D0E001968830910509F08A
:1007C00096CF0F5F1F4F0830110509F088CFDF91DA
:1007D000CF911F910F91FF90EF90DF90CF90BF903E
:1007E000AF9008958091010190910201019739F431
:1007F00062DF82E090E0909302018093010108950E
:100800005EDD35DDAFDD4CDD789410920701C1E08F
:10081000D0E0A89580910001882339F180910801EA
:10082000909109018037974130F4809108019091AF
:100830000901019602C080E090E090930901809345
:1008400008018091080190910901892B71F486B10A
:1008500090E080959095F4E095958795FA95E1F76D
:100860008370809312011092000190911201809187
:100870009401981709F445C0809112018093940166
:10088000809194018230A1F0833011F18130C9F55B
:1008900080919701909198011816190614F4019708
:1008A00002C087E090E0909398018093970129C05F
:1008B0008091990190919A011816190614F40197E4
:1008C00002C087E090E090939A018093990119C04B
:1008D00040919D0150919E016091990170919A0102
:1008E000809197019091980120DE80919D019091D7
:1008F0009E0199DE1816190624F4D0930201C093C4
:10090000010180910701882309F483CF6BDF1092E6
:1009100007017FCF97FB072E16F4009406D077FDD2
:1009200008D00BD007FC05D03EF4909581959F4FE1
:100930000895709561957F4F0895AA1BBB1B51E1E7
:1009400007C0AA1FBB1FA617B70710F0A61BB70B3F
:10095000881F991F5A95A9F780959095BC01CD01E4
:060960000895F894FFCF9A
:00000001FF
