:1000000019C028C027C026C025C024C023C022C0D4
:1000100021C020C01FC01EC01DC01CC01BC01AC0F4
:1000200019C018C017C016C015C014C013C012C024
:1000300011C010C011241FBECFEFD4E0DEBFCDBF72
:1000400021E0A0E0B1E001C01D92A130B207E1F7CC
:1000500002D060C0D5CF2FEF24B92FE027B920EF11
:100060002AB920E328B91BB815B826B130E020958D
:10007000309564E0359527956A95E1F7622F6370B6
:100080006093000120E030E07FEFA895803D47E0DD
:10009000940710F4019615C086B190E08095909574
:1000A00044E0959587954A95E1F78370909100011A
:1000B000981761F15F5F5F3110F08093000180E07D
:1000C00090E0409100016417B1F0413019F04230E6
:1000D00039F011C02A3F310564F02A5F31090BC0A5
:1000E00026503F4F293E63E0360728F028EE33E0E4
:1000F00002C020E030E0009709F475B98217930739
:1001000011F0642FC2CF65B115B8FBCF80E090E04D
:0801100050E0D7CFF894FFCFB7
:00000001FF
