:1000000019C020C01FC01EC01DC01CC01BC01AC00C
:1000100019C018C017C016C015C014C013C012C034
:1000200011C010C00FC00EC00DC00CC00BC00AC064
:1000300009C008C011241FBECFEFD4E0DEBFCDBF82
:1000400012D03DC0DDCFCF93C82F8A3011F48DE0A0
:10005000FADF8091C00085FD02C0A895FACFC09359
:10006000C600CF9108958AEF8AB98FE087B98FEFE4
:1000700084B91BB818B887E690E09093C5008093C8
:10008000C40086E08093C20088E18093C100809123
:10009000C00087FD02C0A895FACF8091C6008D30C0
:1000A00009F48EE685B990E002D0CDDFF0CF911152
:1000B000089581568A5108F4805285580895F8941D
:0200C000FFCF70
:00000001FF
