:1000000019C028C027C026C025C024C023C022C0D4
:1000100021C020C01FC01EC01DC01CC066C01AC0A9
:1000200019C018C017C016C015C014C013C012C024
:1000300011C010C011241FBECFEFD4E0DEBFCDBF72
:1000400021E0A0E0B1E001C01D92A633B207E1F7C4
:1000500013D14DC1D5CF80E090E0FC01E55DFE4FAE
:100060001082019688309105C1F784E080930001E9
:1000700082E080930101089580913501823069F01A
:100080008330A1F08130F9F48091010181508770B3
:100090008093010161E08EEE15C0809100018150D6
:1000A00087708093000161E086E70CC080E090E0FB
:1000B000FC01E55DFE4F1082019688309105C1F785
:1000C00063E088EAD1D0E0910001F0E0E55DFE4F09
:1000D000208181E090E00090010102C0880F991F0B
:1000E0000A94E2F7282B208308951F920F920FB6EF
:1000F0000F9211242F933F938F939F93AF93BF93AE
:10010000EF93FF9315B880910A018F5F87708093FA
:100110000A0120910A0181E090E001C0880F2A9530
:10012000EAF78095982F9F70906398B9807F8BB97C
:10013000E0910A01F0E0EE0FFF1FE55EFE4F8081C7
:100140009181019691838083A0910A01E0910A0137
:10015000B0E0AA0FBB1FA55EBE4FF0E0EE0FFF1F81
:10016000E55FFE4F2D913C918081918128173907E1
:1001700059F48FEF85B9E0910A01F0E0EE0FFF1F0F
:10018000E55EFE4F1182108286B180739091050169
:10019000891731F190910401891314C080910301F2
:1001A0008F5F80930301853188F0809104018093F3
:1001B00005018091050182958F7093E089278093D6
:1001C000350104C0809304011092030120910201C3
:1001D00080910A0190913501820F890F809302016D
:1001E000809109018F5F809309018233D8F01092CA
:1001F000090180910601882329F080910601815030
:100200008093060180910801882349F080910801BC
:10021000815080930801811102C01092B00081E0EA
:1002200080930701FF91EF91BF91AF919F918F91C3
:100230003F912F910F900FBE0F901F9018958093B4
:10024000060180910601882311F0A895FACF089540
:10025000809102018F5F8093020190910201809151
:100260000201880F892708958093B30060930801E5
:1002700082E18093B0000895ABE0B1E0EBE1F1E002
:1002800085E090E08D939D931192119205968D32A9
:100290009105C1F710923401109233018FEF84B9A8
:1002A0008FE087B98AEF8AB980E388B98093050126
:1002B00080930401109235018AE087BD82E084BDFD
:1002C0001092B10080916E00826080936E00109257
:1002D000B00084E48093B100BEDE789410920701F0
:1002E000A895809107018823D9F3C6DEF7CFF8944B
:0202F000FFCF3E
:00000001FF
