:1000000019C020C01FC01EC01EC01CC01BC01AC00B
:1000100019C018C017C016C015C014C013C012C034
:1000200011C010C00FC00EC00DC00CC00BC00AC064
:1000300009C008C011241FBECFEFD4E0DEBFCDBF82
:1000400019D02AC0DDCF1F920F920FB60F92112444
:100050008F939F9386B190E08095909584FF03C025
:1000600085B1809585B99F918F910F900FBE0F90AC
:100070001F9018958FEF84B99FE097B99AEF9AB9BE
:1000800085B980E188B91BB892E0909368008093AD
:0C0090006C007894A895FECFF894FFCF88
:00000001FF
