:1000000019C028C027C026C026C024C023C022C0D3
:1000100021C020C01FC01EC01DC01CC03CC01AC0D3
:1000200019C018C017C016C015C014C013C012C024
:1000300011C010C011241FBECFEFD4E0DEBFCDBF72
:1000400021E0A0E0B1E001C01D92A230B207E1F7CB
:100050004FD068C0D5CF1F920F920FB60F921124C8
:100060008F939F938091B10081110EC086B190E073
:100070008095909584FF08C084E08093B10083E070
:1000800085BD8EE18093B3009F918F910F900FBE3D
:100090000F901F9018951F920F920FB60F92112478
:1000A0008F939F9380910001909101018436910577
:1000B00019F48EE38093B3008091000190910101C7
:1000C000883C910549F41092B10015BC16BC109201
:1000D00001011092000105C00196909301018093E7
:1000E00000019F918F910F900FBE0F901F90189558
:1000F00088E08AB917B880E188B982E18093B000BE
:1001000089EF87BD92E094BD15BC80916E0082603E
:1001100080936E009093680080E380936C007894E5
:08012000A895FECFF894FFCF73
:00000001FF
