:1000000019C020C01FC01EC01DC01CC01BC01AC00C
:1000100019C018C017C016C015C014C013C012C034
:1000200011C010C00FC00EC00DC00CC00BC00AC064
:1000300009C008C011241FBECFEFD4E0DEBFCDBF82
:1000400002D031C0DDCF8AEF8AB98FE087B98FEF58
:1000500084B91BB818B887E690E09093C5008093E8
:10006000C40086E08093C20088E18093C100809143
:10007000C00087FD02C0A895FACF8091C60085B95F
:100080009091C00095FD02C0A895FACF90E003D0F2
:100090008093C600ECCF9111089581568A5108F4DF
:0A00A000805285580895F894FFCFB0
:00000001FF
