:1000000019C033C032C031C030C02FC02EC02DC087
:100010002CC02BC02AC029C028C027C027C025C09B
:1000200024C023C022C021C020C01FC01EC01DC0CC
:100030001CC01BC011241FBECFEFD4E0DEBFCDBF5C
:1000400011E0A0E0B1E0EAEAF3E002C005900D9211
:10005000A432B107D9F721E0A4E2B1E001C01D92BA
:10006000A632B207E1F746D09EC1CACF1F920F92C7
:100070000FB60F9211242F938F939F93EF93FF93BB
:1000800015B8209124012F5F27702093240181E06F
:1000900090E001C0880F2A95EAF78095982F9F700D
:1000A00098B998B1906398B9807F8BB980912501F8
:1000B00090912401E7E0F0E0E91BF10998E0899FC5
:1000C000E00DF11D1124E050FF4F808185B9FF91B3
:1000D000EF919F918F912F910F900FBE0F901F90D6
:1000E000189580E090E0DFD0D3D0CED0BC0180E086
:1000F00090E0DEC08FEF84B98FE087B98AEF8AB9CC
:1001000080E388B989EF87BD82E084BD83E085BD47
:1001100080916E00826080936E0082E18093B000D7
:1001200084E08093B1008EEE8093B300ADD064E0A4
:1001300070E039D080932501789480E090E0C4E0AD
:10014000D0E0A895892BC9F4CCDF9ED0BE012BD07E
:100150008093250186B190E08095909534E0959547
:1001600087953A95E1F78370992731E020E0019770
:1001700009F030E0832F922FE4CF86B190E0809594
:10018000909524E0959587952A95E1F783709927B6
:10019000019719F081E090E0D4CF76D0BE0103D072
:1001A00080932501F7CF97FB072E16F4009406D015
:1001B00077FD08D00BD007FC05D03EF490958195D3
:1001C0009F4F0895709561957F4F0895AA1BBB1BA3
:1001D00051E107C0AA1FBB1FA617B70710F0A61B47
:1001E000B70B881F991F5A95A9F780959095BC0168
:1001F000CD0108958F929F92AF92BF92CF92DF92DE
:10020000EF92FF92CF93DF93EC01688179818A812D
:100210009B81611571058105910521F464E279EDF9
:100220008BE597E02DE133EF41E050E062D04901EA
:100230005A019B01AC01A7EAB1E477D06B017C01C4
:10024000ACEEB4EFA50194017CD0C60ED71EE81E1B
:10025000F91EF7FE06C081E0C81AD108E10880E85F
:10026000F80AC882D982EA82FB82C6019F77DF91B1
:10027000CF91FF90EF90DF90CF90BF90AF909F9085
:100280008F900895B7DF089580E291E0B3DF08957D
:10029000A0E0B0E08093200190932101A09322017F
:1002A000B09323010895A8E1B0E042E050E005C01A
:1002B00012D0272F11C0DC01CB01FC01F999FECF30
:1002C00006C0F2BDE1BDF89A319600B40D924150DE
:1002D0005040B8F70895262FF999FECF1FBA92BD66
:1002E00081BD20BD0FB6F894FA9AF99A0FBE019617
:1002F0000895052E97FB16F400940FD057FD05D0F6
:1003000024D007FC02D046F408C0509540953095A3
:1003100021953F4F4F4F5F4F089590958095709571
:1003200061957F4F8F4F9F4F089531D0A59F900DBE
:10033000B49F900DA49F800D911D11240895B7FFC7
:10034000F4CFF3DF821B930B0895A1E21A2EAA1BB0
:10035000BB1BFD010DC0AA1FBB1FEE1FFF1FA21775
:10036000B307E407F50720F0A21BB30BE40BF50B72
:10037000661F771F881F991F1A9469F760957095FB
:10038000809590959B01AC01BD01CF010895A29F7E
:10039000B001B39FC001A39F01D0B29F700D811D1A
:0A03A0001124911D0895F894FFCF79
:1003AA00081C3E7F3E1C080000367F7F3E1C08006A
:1003BA00083E7F7F3E14081C081C1C2A7736081C3E
:0403CA00010000002E
:00000001FF
