:1000000019C033C032C031C030C02FC02EC02DC087
:100010002CC02BC02AC029C028C027C026C025C09C
:1000200024C023C023C021C020C01FC01EC01DC0CB
:100030001CC01BC011241FBECFEFD4E0DEBFCDBF5C
:1000400011E0A0E0B1E0ECEAF1E002C005900D9211
:10005000A039B107D9F721E0A0E9B1E001C01D92B4
:10006000A239B207E1F74BD09FC0CACF1F920F92BF
:100070000FB60F9211248F938091C6008093900148
:100080008091900185B981E0809391018F910F90CB
:100090000FBE0F901F901895CF93DF93CDB7DEB7AB
:1000A00062970FB6F894DEBF0FBECDBF92E1EDE7C9
:1000B000F1E0DE01119601900D929A95E1F7FE01B3
:1000C000319620E030E09081992319F0329689131F
:1000D00013C0F901EE0FFF1F81E090E08C0F9D1F10
:1000E000E80FF91F818162960FB6F894DEBF0FBE4C
:1000F000CDBFDF91CF9108952F5F3F4FE4CF8FEFBA
:1001000084B98FE087B98AEF8AB98AEA85B918B8C5
:100110001BB886E08093C20087E690E09093C5000C
:100120008093C40080E98093C10082E18093B00095
:1001300010928000109281007894C2E0A89580917E
:100140009101813019F08230B9F0F8CF809190019F
:10015000A3DF8093B30010928500109284008091F9
:1001600081008460809381008091B10084608093DD
:10017000B100C0939101E2CF8091840090918500FD
:10018000853D9043D8F28091B100887F8093B10083
:1001900080918100887F8093810010928500109269
:0C01A000840010929101CACFF894FFCFA8
:1001AC0043340000EE43233400E144340000D444D3
:1001BC00233400C845340000BD46340000B2462349
:1001CC003400A8473400009F472334009641340084
:1001DC00008E4123340086423400007E43350000FB
:1001EC00774323350071443500006A44233500649D
:1001FC00453500005F46350000594623350054470D
:10020C0035000050472335004B4135000047412352
:10021C00350043423500003F454E44000063EE6418
:10022C00D465BD66B2679E618D627E437600000028
:00000001FF
